{
  "contractName": "HealthTrust",
  "abi": [
    {
      "inputs": [],
      "stateMutability": "nonpayable",
      "type": "constructor"
    },
    {
      "inputs": [
        {
          "internalType": "address",
          "name": "",
          "type": "address"
        }
      ],
      "name": "doctorInfo",
      "outputs": [
        {
          "internalType": "string",
          "name": "name",
          "type": "string"
        },
        {
          "internalType": "string",
          "name": "email",
          "type": "string"
        },
        {
          "internalType": "bool",
          "name": "exists",
          "type": "bool"
        }
      ],
      "stateMutability": "view",
      "type": "function"
    },
    {
      "inputs": [
        {
          "internalType": "uint256",
          "name": "",
          "type": "uint256"
        }
      ],
      "name": "doctorList",
      "outputs": [
        {
          "internalType": "address",
          "name": "",
          "type": "address"
        }
      ],
      "stateMutability": "view",
      "type": "function"
    },
    {
      "inputs": [
        {
          "internalType": "string",
          "name": "",
          "type": "string"
        }
      ],
      "name": "emailToAddress",
      "outputs": [
        {
          "internalType": "address",
          "name": "",
          "type": "address"
        }
      ],
      "stateMutability": "view",
      "type": "function"
    },
    {
      "inputs": [
        {
          "internalType": "string",
          "name": "",
          "type": "string"
        }
      ],
      "name": "emailToDesignation",
      "outputs": [
        {
          "internalType": "uint256",
          "name": "",
          "type": "uint256"
        }
      ],
      "stateMutability": "view",
      "type": "function"
    },
    {
      "inputs": [],
      "name": "name",
      "outputs": [
        {
          "internalType": "string",
          "name": "",
          "type": "string"
        }
      ],
      "stateMutability": "view",
      "type": "function"
    },
    {
      "inputs": [
        {
          "internalType": "address",
          "name": "",
          "type": "address"
        }
      ],
      "name": "patientInfo",
      "outputs": [
        {
          "internalType": "string",
          "name": "name",
          "type": "string"
        },
        {
          "internalType": "string",
          "name": "email",
          "type": "string"
        },
        {
          "internalType": "uint256",
          "name": "age",
          "type": "uint256"
        },
        {
          "internalType": "string",
          "name": "record",
          "type": "string"
        },
        {
          "internalType": "bool",
          "name": "exists",
          "type": "bool"
        },
        {
          "internalType": "bool",
          "name": "policyActive",
          "type": "bool"
        }
      ],
      "stateMutability": "view",
      "type": "function"
    },
    {
      "inputs": [
        {
          "internalType": "uint256",
          "name": "",
          "type": "uint256"
        }
      ],
      "name": "patientList",
      "outputs": [
        {
          "internalType": "address",
          "name": "",
          "type": "address"
        }
      ],
      "stateMutability": "view",
      "type": "function"
    },
    {
      "inputs": [],
      "name": "transactionCount",
      "outputs": [
        {
          "internalType": "uint256",
          "name": "",
          "type": "uint256"
        }
      ],
      "stateMutability": "view",
      "type": "function"
    },
    {
      "inputs": [
        {
          "internalType": "uint256",
          "name": "",
          "type": "uint256"
        }
      ],
      "name": "transactions",
      "outputs": [
        {
          "internalType": "address",
          "name": "sender",
          "type": "address"
        },
        {
          "internalType": "address",
          "name": "receiver",
          "type": "address"
        },
        {
          "internalType": "uint256",
          "name": "value",
          "type": "uint256"
        },
        {
          "internalType": "bool",
          "name": "settled",
          "type": "bool"
        }
      ],
      "stateMutability": "view",
      "type": "function"
    },
    {
      "inputs": [
        {
          "internalType": "string",
          "name": "_name",
          "type": "string"
        },
        {
          "internalType": "uint256",
          "name": "_age",
          "type": "uint256"
        },
        {
          "internalType": "uint256",
          "name": "_designation",
          "type": "uint256"
        },
        {
          "internalType": "string",
          "name": "_email",
          "type": "string"
        },
        {
          "internalType": "string",
          "name": "_hash",
          "type": "string"
        }
      ],
      "name": "register",
      "outputs": [],
      "stateMutability": "nonpayable",
      "type": "function"
    },
    {
      "inputs": [
        {
          "internalType": "address",
          "name": "_addr",
          "type": "address"
        }
      ],
      "name": "login",
      "outputs": [
        {
          "internalType": "uint256",
          "name": "",
          "type": "uint256"
        }
      ],
      "stateMutability": "view",
      "type": "function"
    },
    {
      "inputs": [
        {
          "internalType": "address",
          "name": "_addr",
          "type": "address"
        }
      ],
      "name": "getPatientDoctorList",
      "outputs": [
        {
          "internalType": "address[]",
          "name": "",
          "type": "address[]"
        }
      ],
      "stateMutability": "view",
      "type": "function"
    },
    {
      "inputs": [
        {
          "internalType": "address",
          "name": "_addr",
          "type": "address"
        }
      ],
      "name": "getDoctorPatientList",
      "outputs": [
        {
          "internalType": "address[]",
          "name": "",
          "type": "address[]"
        }
      ],
      "stateMutability": "view",
      "type": "function"
    },
    {
      "inputs": [
        {
          "internalType": "address",
          "name": "_addr",
          "type": "address"
        }
      ],
      "name": "getPatientTransactions",
      "outputs": [
        {
          "internalType": "uint256[]",
          "name": "",
          "type": "uint256[]"
        }
      ],
      "stateMutability": "view",
      "type": "function"
    },
    {
      "inputs": [
        {
          "internalType": "address",
          "name": "_addr",
          "type": "address"
        }
      ],
      "name": "getDoctorTransactions",
      "outputs": [
        {
          "internalType": "uint256[]",
          "name": "",
          "type": "uint256[]"
        }
      ],
      "stateMutability": "view",
      "type": "function"
    },
    {
      "inputs": [],
      "name": "getAllDoctorsAddress",
      "outputs": [
        {
          "internalType": "address[]",
          "name": "",
          "type": "address[]"
        }
      ],
      "stateMutability": "view",
      "type": "function"
    },
    {
      "inputs": [
        {
          "internalType": "string",
          "name": "_email",
          "type": "string"
        }
      ],
      "name": "permitAccess",
      "outputs": [],
      "stateMutability": "nonpayable",
      "type": "function"
    },
    {
      "inputs": [
        {
          "internalType": "address",
          "name": "_addr",
          "type": "address"
        }
      ],
      "name": "revokeAccess",
      "outputs": [],
      "stateMutability": "nonpayable",
      "type": "function"
    },
    {
      "inputs": [
        {
          "internalType": "uint256",
          "name": "_id",
          "type": "uint256"
        }
      ],
      "name": "settleTransactionsByPatient",
      "outputs": [],
      "stateMutability": "payable",
      "type": "function"
    },
    {
      "inputs": [
        {
          "internalType": "address",
          "name": "paddr",
          "type": "address"
        },
        {
          "internalType": "string",
          "name": "_hash",
          "type": "string"
        },
        {
          "internalType": "uint256",
          "name": "charges",
          "type": "uint256"
        }
      ],
      "name": "updatePatientRecordAndAddTransaction",
      "outputs": [],
      "stateMutability": "nonpayable",
      "type": "function"
    }
  ],
  "bytecode": "0x60806040523480156200001157600080fd5b5060408051808201909152600b81526a1a19585b1d1a1d1c9d5cdd60aa1b6020820152600090620000439082620000f4565b506000600355620001c0565b634e487b7160e01b600052604160045260246000fd5b600181811c908216806200007a57607f821691505b6020821081036200009b57634e487b7160e01b600052602260045260246000fd5b50919050565b601f821115620000ef57600081815260208120601f850160051c81016020861015620000ca5750805b601f850160051c820191505b81811015620000eb57828155600101620000d6565b5050505b505050565b81516001600160401b038111156200011057620001106200004f565b620001288162000121845462000065565b84620000a1565b602080601f831160018114620001605760008415620001475750858301515b600019600386901b1c1916600185901b178555620000eb565b600085815260208120601f198616915b82811015620001915788860151825594840194600190910190840162000170565b5085821015620001b05787850151600019600388901b60f8161c191681555b5050505050600190811b01905550565b611a2f80620001d06000396000f3fe60806040526004361061011f5760003560e01c806385e68531116100a0578063babb1d4111610064578063babb1d41146103d4578063ea78dcbf146103f4578063eeec248a14610435578063fa46548514610455578063fae0aee21461046857600080fd5b806385e68531146102dd5780639493ba55146102ff5780639ace38c21461031f578063b53ac48e1461039e578063b77bf600146103be57600080fd5b806335a6861a116100e757806335a6861a146102295780635497dacf146102495780636142d2dc1461027657806371343df6146102a8578063844ff83d146102c857600080fd5b806306fdde031461012457806310d258111461014f578063127ca4b4146101955780631707c2e3146101cd5780631bf04073146101fa575b600080fd5b34801561013057600080fd5b50610139610488565b60405161014691906114db565b60405180910390f35b34801561015b57600080fd5b5061018761016a366004611598565b805160208183018101805160088252928201919093012091525481565b604051908152602001610146565b3480156101a157600080fd5b506101b56101b03660046115d5565b610516565b6040516001600160a01b039091168152602001610146565b3480156101d957600080fd5b506101ed6101e8366004611605565b610540565b6040516101469190611620565b34801561020657600080fd5b5061021a610215366004611605565b6105ea565b60405161014693929190611664565b34801561023557600080fd5b50610187610244366004611605565b61071f565b34801561025557600080fd5b50610269610264366004611605565b610799565b604051610146919061169c565b34801561028257600080fd5b50610296610291366004611605565b61084c565b604051610146969594939291906116dd565b3480156102b457600080fd5b506101ed6102c3366004611605565b610a1e565b3480156102d457600080fd5b50610269610ac6565b3480156102e957600080fd5b506102fd6102f8366004611605565b610b28565b005b34801561030b57600080fd5b5061026961031a366004611605565b610bd2565b34801561032b57600080fd5b5061037161033a3660046115d5565b60046020526000908152604090208054600182015460028301546003909301546001600160a01b0392831693919092169160ff1684565b604080516001600160a01b0395861681529490931660208501529183015215156060820152608001610146565b3480156103aa57600080fd5b506102fd6103b9366004611737565b610c84565b3480156103ca57600080fd5b5061018760035481565b3480156103e057600080fd5b506101b56103ef3660046115d5565b610e83565b34801561040057600080fd5b506101b561040f366004611598565b80516020818301810180516007825292820191909301209152546001600160a01b031681565b34801561044157600080fd5b506102fd61045036600461178e565b610e93565b6102fd6104633660046115d5565b611150565b34801561047457600080fd5b506102fd610483366004611598565b611249565b600080546104959061182a565b80601f01602080910402602001604051908101604052809291908181526020018280546104c19061182a565b801561050e5780601f106104e35761010080835404028352916020019161050e565b820191906000526020600020905b8154815290600101906020018083116104f157829003601f168201915b505050505081565b6002818154811061052657600080fd5b6000918252602090912001546001600160a01b0316905081565b60606001600160a01b03821661055557600080fd5b6001600160a01b03821660009081526005602052604090206004015460ff1661057d57600080fd5b6001600160a01b038216600090815260056020818152604092839020909101805483518184028101840190945280845290918301828280156105de57602002820191906000526020600020905b8154815260200190600101908083116105ca575b50505050509050919050565b6006602052600090815260409020805481906106059061182a565b80601f01602080910402602001604051908101604052809291908181526020018280546106319061182a565b801561067e5780601f106106535761010080835404028352916020019161067e565b820191906000526020600020905b81548152906001019060200180831161066157829003601f168201915b5050505050908060010180546106939061182a565b80601f01602080910402602001604051908101604052809291908181526020018280546106bf9061182a565b801561070c5780601f106106e15761010080835404028352916020019161070c565b820191906000526020600020905b8154815290600101906020018083116106ef57829003601f168201915b5050506002909301549192505060ff1683565b60006001600160a01b03821661073457600080fd5b6001600160a01b03821660009081526005602052604090206004015460ff161561076057506001919050565b6001600160a01b03821660009081526006602052604090206002015460ff161561078c57506002919050565b506000919050565b919050565b60606001600160a01b0382166107ae57600080fd5b6001600160a01b03821660009081526006602052604090206002015460ff166107d657600080fd5b6001600160a01b038216600090815260066020908152604091829020600401805483518184028101840190945280845290918301828280156105de57602002820191906000526020600020905b81546001600160a01b031681526001909101906020018083116108235750505050509050919050565b6005602052600090815260409020805481906108679061182a565b80601f01602080910402602001604051908101604052809291908181526020018280546108939061182a565b80156108e05780601f106108b5576101008083540402835291602001916108e0565b820191906000526020600020905b8154815290600101906020018083116108c357829003601f168201915b5050505050908060010180546108f59061182a565b80601f01602080910402602001604051908101604052809291908181526020018280546109219061182a565b801561096e5780601f106109435761010080835404028352916020019161096e565b820191906000526020600020905b81548152906001019060200180831161095157829003601f168201915b5050505050908060020154908060030180546109899061182a565b80601f01602080910402602001604051908101604052809291908181526020018280546109b59061182a565b8015610a025780601f106109d757610100808354040283529160200191610a02565b820191906000526020600020905b8154815290600101906020018083116109e557829003601f168201915b5050506004909301549192505060ff8082169161010090041686565b60606001600160a01b038216610a3357600080fd5b6001600160a01b03821660009081526006602052604090206002015460ff16610a5b57600080fd5b6001600160a01b038216600090815260066020908152604091829020600301805483518184028101840190945280845290918301828280156105de57602002820191906000526020600020908154815260200190600101908083116105ca5750505050509050919050565b60606002805480602002602001604051908101604052809291908181526020018280548015610b1e57602002820191906000526020600020905b81546001600160a01b03168152600190910190602001808311610b00575b5050505050905090565b6001600160a01b038116610b3b57600080fd5b33610b4557600080fd5b6001600160a01b03811660009081526006602052604090206002015460ff16610b6d57600080fd5b3360009081526005602052604090206004015460ff16610b8c57600080fd5b6001600160a01b0381166000908152600660205260409020610bb19060040133611347565b50336000908152600560205260409020610bce9060060182611347565b5050565b60606001600160a01b038216610be757600080fd5b6001600160a01b03821660009081526005602052604090206004015460ff16610c0f57600080fd5b6001600160a01b038216600090815260056020908152604091829020600601805483518184028101840190945280845290918301828280156105de576020028201919060005260206000209081546001600160a01b031681526001909101906020018083116108235750505050509050919050565b33610c8e57600080fd5b6001600160a01b038316610ca157600080fd5b3360009081526006602052604090206002015460ff16610cc057600080fd5b6001600160a01b03831660009081526005602052604090206004015460ff16610ce857600080fd5b6000825111610cf657600080fd5b6000805b33600090815260066020526040902060040154811015610d755733600090815260066020526040902060040180546001600160a01b038716919083908110610d4457610d44611864565b6000918252602090912001546001600160a01b031603610d6357600191505b80610d6d81611890565b915050610cfa565b5080610d8057600080fd5b6001600160a01b0384166000908152600560205260409020600301610da584826118f4565b5060038054906000610db683611890565b9091555050604080516080810182526001600160a01b0395861680825233602080840182815284860197885260006060860181815260038054835260048552888320975188546001600160a01b0319908116918f1691909117895593516001808a01805490961691909e1617909355985160028701559751948101805460ff1916951515959095179094559086526006815283862083549084018054808b018255908852828820015590855260058082529285209154919092018054968701815584529220909301555050565b6001818154811061052657600080fd5b33610e9d57600080fd5b6000855111610eab57600080fd5b6000825111610eb957600080fd5b60006001600160a01b0316600783604051610ed491906119b4565b908152604051908190036020019020546001600160a01b031614610ef757600080fd5b600882604051610f0791906119b4565b908152602001604051809103902054600014610f2257600080fd5b3360008181526005602052604090206004015460ff1615610f4257600080fd5b6001600160a01b03811660009081526006602052604090206002015460ff1615610f6b57600080fd5b8360010361109e5760008511610f8057600080fd5b6000825111610f8e57600080fd5b6001600160a01b038116600090815260056020526040902080610fb188826118f4565b5060018101610fc085826118f4565b506002810186905560038101610fd684826118f4565b50600481018054600160ff199091168117909155805480820182556000919091527fb10e2d527612073b26eecdfd717e6a320cf44b4afac2b0732d9fcbe2b7fa0cf60180546001600160a01b0319166001600160a01b03841617905560405182906007906110459087906119b4565b908152602001604051809103902060006101000a8154816001600160a01b0302191690836001600160a01b031602179055508460088560405161108891906119b4565b9081526040519081900360200190205550611148565b8360020361011f576001600160a01b0381166000908152600660205260409020806110c988826118f4565b50600181016110d885826118f4565b5060028181018054600160ff199091168117909155815490810182556000919091527f405787fa12a823e0f2b7631cc41b3ba8828b3321ca811111fa75cd3aa3bb5ace0180546001600160a01b0319166001600160a01b03841617905560405182906007906110459087906119b4565b505050505050565b3361115a57600080fd5b3360009081526005602052604090206004015460ff1661117957600080fd5b6000818152600460205260409020546001600160a01b0316331461119c57600080fd5b60008181526004602052604090206003015460ff16156111bb57600080fd5b6000818152600460209081526040808320600101546001600160a01b031680845260069092529091206002015460ff166111f457600080fd5b6040516001600160a01b038216903480156108fc02916000818181858888f19350505050158015611229573d6000803e3d6000fd5b50506000908152600460205260409020600301805460ff19166001179055565b600081511161125757600080fd5b3361126157600080fd5b600060078260405161127391906119b4565b908152604051908190036020019020546001600160a01b031690508061129857600080fd5b3360009081526005602052604090206004015460ff166112b757600080fd5b6001600160a01b03811660009081526006602052604090206002015460ff166112df57600080fd5b6001600160a01b03166000818152600660208181526040808420338086526005845291852060049091018054600181810183559187528487200180546001600160a01b0319908116909417905593018054938401815584529220018054909116909117905550565b60006001600160a01b03821661135c57600080fd5b60008060005b85548110156113bb57846001600160a01b031686828154811061138757611387611864565b6000918252602090912001546001600160a01b0316036113a957600192508091505b806113b381611890565b915050611362565b50816113c657600080fd5b84546001101561144f57845485906113e0906001906119d0565b815481106113f0576113f0611864565b9060005260206000200160009054906101000a90046001600160a01b031685828154811061142057611420611864565b9060005260206000200160006101000a8154816001600160a01b0302191690836001600160a01b031602179055505b8480548061145f5761145f6119e3565b600082815260209020810160001990810180546001600160a01b03191690550190559150505b92915050565b60005b838110156114a657818101518382015260200161148e565b50506000910152565b600081518084526114c781602086016020860161148b565b601f01601f19169290920160200192915050565b6020815260006114ee60208301846114af565b9392505050565b634e487b7160e01b600052604160045260246000fd5b600082601f83011261151c57600080fd5b813567ffffffffffffffff80821115611537576115376114f5565b604051601f8301601f19908116603f0116810190828211818310171561155f5761155f6114f5565b8160405283815286602085880101111561157857600080fd5b836020870160208301376000602085830101528094505050505092915050565b6000602082840312156115aa57600080fd5b813567ffffffffffffffff8111156115c157600080fd5b6115cd8482850161150b565b949350505050565b6000602082840312156115e757600080fd5b5035919050565b80356001600160a01b038116811461079457600080fd5b60006020828403121561161757600080fd5b6114ee826115ee565b6020808252825182820181905260009190848201906040850190845b818110156116585783518352928401929184019160010161163c565b50909695505050505050565b60608152600061167760608301866114af565b828103602084015261168981866114af565b9150508215156040830152949350505050565b6020808252825182820181905260009190848201906040850190845b818110156116585783516001600160a01b0316835292840192918401916001016116b8565b60c0815260006116f060c08301896114af565b828103602084015261170281896114af565b9050866040840152828103606084015261171c81876114af565b9415156080840152505090151560a090910152949350505050565b60008060006060848603121561174c57600080fd5b611755846115ee565b9250602084013567ffffffffffffffff81111561177157600080fd5b61177d8682870161150b565b925050604084013590509250925092565b600080600080600060a086880312156117a657600080fd5b853567ffffffffffffffff808211156117be57600080fd5b6117ca89838a0161150b565b9650602088013595506040880135945060608801359150808211156117ee57600080fd5b6117fa89838a0161150b565b9350608088013591508082111561181057600080fd5b5061181d8882890161150b565b9150509295509295909350565b600181811c9082168061183e57607f821691505b60208210810361185e57634e487b7160e01b600052602260045260246000fd5b50919050565b634e487b7160e01b600052603260045260246000fd5b634e487b7160e01b600052601160045260246000fd5b6000600182016118a2576118a261187a565b5060010190565b601f8211156118ef57600081815260208120601f850160051c810160208610156118d05750805b601f850160051c820191505b81811015611148578281556001016118dc565b505050565b815167ffffffffffffffff81111561190e5761190e6114f5565b6119228161191c845461182a565b846118a9565b602080601f831160018114611957576000841561193f5750858301515b600019600386901b1c1916600185901b178555611148565b600085815260208120601f198616915b8281101561198657888601518255948401946001909101908401611967565b50858210156119a45787850151600019600388901b60f8161c191681555b5050505050600190811b01905550565b600082516119c681846020870161148b565b9190910192915050565b818103818111156114855761148561187a565b634e487b7160e01b600052603160045260246000fdfea2646970667358221220de45ea97792c0e651e6514e6167326475e00066864317b4efb30aff118fc2ba864736f6c63430008120033",
  "immutableReferences": {},
  "source": "// SPDX-License-Identifier: MIT\r\npragma solidity >=0.7.0 <0.9.0;\r\n\r\ncontract HealthTrust {\r\n    string public name;\r\n    address[] public patientList;\r\n    address[] public doctorList;\r\n    uint public transactionCount;\r\n    mapping (uint => Transactions) public transactions;\r\n    mapping (address => Patient) public patientInfo;\r\n    mapping (address => Doctor) public doctorInfo;\r\n    mapping (string => address) public emailToAddress;\r\n    mapping (string => uint) public emailToDesignation;\r\n\r\n    struct Patient {\r\n        string name;\r\n        string email;\r\n        uint age;\r\n        string record;\r\n        bool exists;\r\n        bool policyActive;\r\n        uint[] transactions;\r\n        address[] doctorAccessList;\r\n    }\r\n    struct Doctor {\r\n        string name;\r\n        string email;\r\n        bool exists;\r\n        uint[] transactions;\r\n        address[] patientAccessList;\r\n    }\r\n    struct Transactions {\r\n        address sender;\r\n        address receiver;\r\n        uint value;\r\n        bool settled;\r\n    }\r\n    \r\n\r\n    constructor(){\r\n        name = \"healthtrust\";\r\n        transactionCount = 0;\r\n    }\r\n\r\n    function register(string memory _name, uint _age, uint _designation, string memory _email, string memory _hash) public {\r\n        require(msg.sender != address(0));\r\n        require(bytes(_name).length > 0);\r\n        require(bytes(_email).length > 0);\r\n        require(emailToAddress[_email] == address(0));\r\n        require(emailToDesignation[_email] == 0);\r\n        address _addr = msg.sender;\r\n        require(!patientInfo[_addr].exists);\r\n        require(!doctorInfo[_addr].exists);\r\n        if(_designation == 1){\r\n            require(_age > 0);\r\n            require(bytes(_hash).length > 0);\r\n            Patient storage pinfo = patientInfo[_addr];\r\n            pinfo.name = _name;\r\n            pinfo.email = _email;\r\n            pinfo.age = _age;\r\n            pinfo.record = _hash;\r\n            pinfo.exists = true;\r\n            pinfo.doctorAccessList;\r\n            patientList.push(_addr);\r\n            emailToAddress[_email] = _addr;\r\n            emailToDesignation[_email] = _designation;\r\n        }\r\n        else if (_designation == 2){\r\n            Doctor storage dinfo = doctorInfo[_addr];\r\n            dinfo.name = _name;\r\n            dinfo.email = _email;\r\n            dinfo.exists = true;\r\n            doctorList.push(_addr);\r\n            emailToAddress[_email] = _addr;\r\n            emailToDesignation[_email] = _designation;\r\n        }\r\n        else{\r\n            revert();\r\n        }\r\n    }\r\n\r\n    function login(address _addr) view public returns (uint){\r\n        require(_addr != address(0));\r\n        if(patientInfo[_addr].exists){\r\n            return 1;\r\n        }else if(doctorInfo[_addr].exists){\r\n            return 2;\r\n        }else{\r\n            return 0;\r\n        }\r\n    }\r\n\r\n\r\n    function getPatientDoctorList(address _addr) view public returns (address[] memory){\r\n        require(_addr != address(0));\r\n        require(patientInfo[_addr].exists);\r\n        return (patientInfo[_addr].doctorAccessList);\r\n    }\r\n    function getDoctorPatientList(address _addr) view public returns (address[] memory){\r\n        require(_addr != address(0));\r\n        require(doctorInfo[_addr].exists);\r\n        return (doctorInfo[_addr].patientAccessList);\r\n    }\r\n    function getPatientTransactions(address _addr) view public returns (uint[] memory){\r\n        require(_addr != address(0));\r\n        require(patientInfo[_addr].exists);\r\n        return (patientInfo[_addr].transactions);\r\n    }\r\n    function getDoctorTransactions(address _addr) view public returns (uint[] memory){\r\n        require(_addr != address(0));\r\n        require(doctorInfo[_addr].exists);\r\n        return (doctorInfo[_addr].transactions);\r\n    }\r\n    function getAllDoctorsAddress() view public returns (address[] memory) {\r\n        return doctorList;\r\n    }\r\n\r\n    // Called By Patient\r\n    function permitAccess(string memory _email) public {\r\n        require(bytes(_email).length > 0);\r\n        require(msg.sender != address(0));\r\n        address _addr = emailToAddress[_email];\r\n        require(_addr != address(0));\r\n        require(patientInfo[msg.sender].exists);\r\n        require(doctorInfo[_addr].exists);\r\n        Doctor storage dinfo = doctorInfo[_addr];\r\n        Patient storage pinfo = patientInfo[msg.sender];\r\n        dinfo.patientAccessList.push(msg.sender);\r\n        pinfo.doctorAccessList.push(_addr);\r\n    }\r\n    \r\n    // Called by Patient\r\n    function revokeAccess(address _addr) public{\r\n        require(_addr != address(0));\r\n        require(msg.sender != address(0));\r\n        require(doctorInfo[_addr].exists);\r\n        require(patientInfo[msg.sender].exists);\r\n        removeFromList(doctorInfo[_addr].patientAccessList, msg.sender);\r\n        removeFromList(patientInfo[msg.sender].doctorAccessList, _addr);\r\n    }\r\n\r\n    // Called by Patient\r\n    function settleTransactionsByPatient(uint _id) payable public {\r\n        require(msg.sender != address(0));\r\n        require(patientInfo[msg.sender].exists);\r\n        require(msg.sender == transactions[_id].sender);\r\n        require(!transactions[_id].settled);\r\n        address _addr = transactions[_id].receiver;\r\n        require(doctorInfo[_addr].exists);\r\n        payable(_addr).transfer(msg.value);\r\n        transactions[_id].settled = true;\r\n    }\r\n\r\n    // Called by Doctor\r\n    function updatePatientRecordAndAddTransaction(address paddr, string memory _hash, uint charges) public {\r\n        require(msg.sender != address(0));\r\n        require(paddr != address(0));\r\n        require(doctorInfo[msg.sender].exists);\r\n        require(patientInfo[paddr].exists);\r\n        require(bytes(_hash).length > 0);\r\n        bool patientFound = false;\r\n        for(uint i = 0;i<doctorInfo[msg.sender].patientAccessList.length;i++){\r\n            if(doctorInfo[msg.sender].patientAccessList[i]==paddr){\r\n                patientFound = true;\r\n            }\r\n        }\r\n        if(!patientFound){\r\n            revert();\r\n        }\r\n        patientInfo[paddr].record = _hash;\r\n\r\n        transactionCount++;\r\n        transactions[transactionCount] = Transactions(paddr, msg.sender, charges, false);\r\n        doctorInfo[msg.sender].transactions.push(transactionCount);\r\n        patientInfo[paddr].transactions.push(transactionCount);\r\n        \r\n    }\r\n\r\n    function removeFromList(address[] storage Array, address addr) internal returns (uint){\r\n        require(addr != address(0));\r\n        bool check = false;\r\n        uint del_index = 0;\r\n        for(uint i = 0; i<Array.length; i++){\r\n            if(Array[i] == addr){\r\n                check = true;\r\n                del_index = i;\r\n            }\r\n        }\r\n        if(!check) revert();\r\n        else{\r\n            if(Array.length > 1){\r\n                Array[del_index] = Array[Array.length - 1];\r\n            }\r\n            Array.pop();\r\n        }\r\n        return del_index;\r\n    }\r\n}\r\n",
  "sourcePath": "C:\\Users\\tommy\\Dev Projects\\healthTrust\\smartContract-truffle\\contracts\\HealthTrust.sol",
  "compiler": {
    "name": "solc",
    "version": "0.8.18+commit.87f61d96.Emscripten.clang"
  },
  "schemaVersion": "3.4.16",
  "updatedAt": "2023-10-01T02:12:29.673Z",
  "devdoc": {
    "kind": "dev",
    "methods": {},
    "version": 1
  },
  "userdoc": {
    "kind": "user",
    "methods": {},
    "version": 1
  }
}